{"abi":[{"type":"constructor","inputs":[{"name":"_kingAddress","type":"address","internalType":"address"}],"stateMutability":"nonpayable"},{"type":"fallback","stateMutability":"payable"},{"type":"receive","stateMutability":"payable"},{"type":"function","name":"activateContract","inputs":[],"outputs":[],"stateMutability":"nonpayable"},{"type":"function","name":"currentKing","inputs":[],"outputs":[{"name":"","type":"address","internalType":"address"}],"stateMutability":"view"},{"type":"function","name":"donateETH","inputs":[],"outputs":[],"stateMutability":"payable"},{"type":"function","name":"getDonorsAddresses","inputs":[{"name":"_offset","type":"uint256","internalType":"uint256"},{"name":"_limit","type":"uint256","internalType":"uint256"}],"outputs":[{"name":"_result","type":"address[]","internalType":"address[]"}],"stateMutability":"view"},{"type":"function","name":"isContractActive","inputs":[],"outputs":[{"name":"","type":"bool","internalType":"bool"}],"stateMutability":"view"},{"type":"function","name":"isKing","inputs":[{"name":"_kingAddress","type":"address","internalType":"address"}],"outputs":[{"name":"","type":"bool","internalType":"bool"}],"stateMutability":"view"},{"type":"function","name":"lifetimeDonorsCount","inputs":[],"outputs":[{"name":"","type":"uint256","internalType":"uint256"}],"stateMutability":"view"},{"type":"function","name":"myDonation","inputs":[],"outputs":[{"name":"","type":"uint256","internalType":"uint256"}],"stateMutability":"view"},{"type":"function","name":"pauseContract","inputs":[],"outputs":[],"stateMutability":"nonpayable"},{"type":"function","name":"totalETHDonated","inputs":[],"outputs":[{"name":"","type":"uint256","internalType":"uint256"}],"stateMutability":"view"},{"type":"function","name":"vaultBalance","inputs":[],"outputs":[{"name":"","type":"uint256","internalType":"uint256"}],"stateMutability":"view"},{"type":"function","name":"viewDonorBalance","inputs":[{"name":"_donorAddress","type":"address","internalType":"address"}],"outputs":[{"name":"","type":"uint256","internalType":"uint256"}],"stateMutability":"view"},{"type":"function","name":"viewDonorDonationStatus","inputs":[{"name":"_donorAddress","type":"address","internalType":"address"}],"outputs":[{"name":"","type":"bool","internalType":"bool"}],"stateMutability":"view"},{"type":"function","name":"withdrawETH","inputs":[{"name":"_receiverAddress","type":"address","internalType":"address"},{"name":"_ethAmount","type":"uint256","internalType":"uint256"}],"outputs":[],"stateMutability":"nonpayable"},{"type":"event","name":"ContractActivated","inputs":[{"name":"_kingAddress","type":"address","indexed":true,"internalType":"address"}],"anonymous":false},{"type":"event","name":"ContractPaused","inputs":[{"name":"_kingAddress","type":"address","indexed":true,"internalType":"address"}],"anonymous":false},{"type":"event","name":"EthDonated","inputs":[{"name":"_donorAddress","type":"address","indexed":true,"internalType":"address"},{"name":"_amount","type":"uint256","indexed":false,"internalType":"uint256"}],"anonymous":false},{"type":"event","name":"EthWithdrawn","inputs":[{"name":"_kingAddress","type":"address","indexed":true,"internalType":"address"},{"name":"_receiverAddress","type":"address","indexed":true,"internalType":"address"},{"name":"_amount","type":"uint256","indexed":false,"internalType":"uint256"}],"anonymous":false},{"type":"event","name":"KingshipTransferred","inputs":[{"name":"_zeroAddress","type":"address","indexed":false,"internalType":"address"},{"name":"_newKingAddress","type":"address","indexed":true,"internalType":"address"}],"anonymous":false},{"type":"error","name":"AlreadyActive","inputs":[]},{"type":"error","name":"AlreadyPaused","inputs":[]},{"type":"error","name":"AmountTooLow","inputs":[]},{"type":"error","name":"HighLimit","inputs":[]},{"type":"error","name":"HighOffset","inputs":[]},{"type":"error","name":"InsufficientBalance","inputs":[]},{"type":"error","name":"InvalidAddress","inputs":[]},{"type":"error","name":"InvalidKing","inputs":[{"name":"_kingAddress","type":"address","internalType":"address"}]},{"type":"error","name":"NoReentrancy","inputs":[]},{"type":"error","name":"PausedContract","inputs":[]},{"type":"error","name":"Unauthorized","inputs":[{"name":"_user","type":"address","internalType":"address"},{"name":"_king","type":"address","internalType":"address"}]},{"type":"error","name":"WithdrawalFailed","inputs":[]}],"bytecode":{"object":"0x608060405234801561000f575f5ffd5b50604051611a04380380611a048339818101604052810190610031919061021e565b805f73ffffffffffffffffffffffffffffffffffffffff168173ffffffffffffffffffffffffffffffffffffffff16148061009757503073ffffffffffffffffffffffffffffffffffffffff168173ffffffffffffffffffffffffffffffffffffffff16145b156100d957806040517f2a75a3620000000000000000000000000000000000000000000000000000000081526004016100d09190610258565b60405180910390fd5b805f5f6101000a81548173ffffffffffffffffffffffffffffffffffffffff021916908373ffffffffffffffffffffffffffffffffffffffff16021790555060015f60146101000a81548160ff0219169083600181111561013d5761013c610271565b5b02179055508073ffffffffffffffffffffffffffffffffffffffff167f2c61249c64eb01f4034a5c7a799df21a56761bb5ffe5aab14e6037b8c10ba4205f6040516101889190610258565b60405180910390a2505f5f60156101000a81548160ff021916908360018111156101b5576101b4610271565b5b02179055505061029e565b5f5ffd5b5f73ffffffffffffffffffffffffffffffffffffffff82169050919050565b5f6101ed826101c4565b9050919050565b6101fd816101e3565b8114610207575f5ffd5b50565b5f81519050610218816101f4565b92915050565b5f60208284031215610233576102326101c0565b5b5f6102408482850161020a565b91505092915050565b610252816101e3565b82525050565b5f60208201905061026b5f830184610249565b92915050565b7f4e487b71000000000000000000000000000000000000000000000000000000005f52602160045260245ffd5b611759806102ab5f395ff3fe6080604052600436106100e0575f3560e01c80638fda356d1161007e578063c91c9cfe11610058578063c91c9cfe14610277578063db76858e146102b3578063ed07f905146102ef578063f5b4571414610319576100ef565b80638fda356d146101fb57806390420628146102115780639742a01a1461023b576100ef565b80635f6c5975116100ba5780635f6c5975146101615780638af8dbae1461018b5780638b4c40b0146101c75780638f5949f9146101d1576100ef565b80630bf6cc08146100f9578063439766ce146101235780634782f77914610139576100ef565b366100ef576100ed610343565b005b6100f7610343565b005b348015610104575f5ffd5b5061010d6105c6565b60405161011a9190611327565b60405180910390f35b34801561012e575f5ffd5b506101376105cd565b005b348015610144575f5ffd5b5061015f600480360381019061015a91906113c8565b610689565b005b34801561016c575f5ffd5b50610175610749565b6040516101829190611327565b60405180910390f35b348015610196575f5ffd5b506101b160048036038101906101ac9190611406565b61078d565b6040516101be9190611327565b60405180910390f35b6101cf6107d3565b005b3480156101dc575f5ffd5b506101e5610848565b6040516101f2919061144b565b60405180910390f35b348015610206575f5ffd5b5061020f610883565b005b34801561021c575f5ffd5b5061022561093f565b6040516102329190611327565b60405180910390f35b348015610246575f5ffd5b50610261600480360381019061025c9190611406565b610948565b60405161026e919061144b565b60405180910390f35b348015610282575f5ffd5b5061029d60048036038101906102989190611406565b61099a565b6040516102aa919061144b565b60405180910390f35b3480156102be575f5ffd5b506102d960048036038101906102d49190611464565b6109f1565b6040516102e69190611559565b60405180910390f35b3480156102fa575f5ffd5b50610303610ab7565b6040516103109190611327565b60405180910390f35b348015610324575f5ffd5b5061032d610add565b60405161033a9190611588565b60405180910390f35b5f340361037c576040517f1fbaba3500000000000000000000000000000000000000000000000000000000815260040160405180910390fd5b5f60035f3373ffffffffffffffffffffffffffffffffffffffff1673ffffffffffffffffffffffffffffffffffffffff1681526020019081526020015f205403610407575f601681819054906101000a900467ffffffffffffffff168092919060010191906101000a81548167ffffffffffffffff021916908367ffffffffffffffff160217905550505b3460015f82825461041891906115ce565b925050819055503460035f3373ffffffffffffffffffffffffffffffffffffffff1673ffffffffffffffffffffffffffffffffffffffff1681526020019081526020015f205f82825461046b91906115ce565b9250508190555060045f3373ffffffffffffffffffffffffffffffffffffffff1673ffffffffffffffffffffffffffffffffffffffff1681526020019081526020015f205f9054906101000a900460ff1661057657600160045f3373ffffffffffffffffffffffffffffffffffffffff1673ffffffffffffffffffffffffffffffffffffffff1681526020019081526020015f205f6101000a81548160ff021916908315150217905550600233908060018154018082558091505060019003905f5260205f20015f9091909190916101000a81548173ffffffffffffffffffffffffffffffffffffffff021916908373ffffffffffffffffffffffffffffffffffffffff1602179055505b3373ffffffffffffffffffffffffffffffffffffffff167fdd157bd129d8f95c09296722818ee15ac4808d76efc4883cae74131974b994eb346040516105bc9190611327565b60405180910390a2565b5f47905090565b5f5f9054906101000a900473ffffffffffffffffffffffffffffffffffffffff1673ffffffffffffffffffffffffffffffffffffffff163373ffffffffffffffffffffffffffffffffffffffff161461067f57335f5f9054906101000a900473ffffffffffffffffffffffffffffffffffffffff166040517f295a81c1000000000000000000000000000000000000000000000000000000008152600401610676929190611601565b60405180910390fd5b610687610b04565b565b5f5f9054906101000a900473ffffffffffffffffffffffffffffffffffffffff1673ffffffffffffffffffffffffffffffffffffffff163373ffffffffffffffffffffffffffffffffffffffff161461073b57335f5f9054906101000a900473ffffffffffffffffffffffffffffffffffffffff166040517f295a81c1000000000000000000000000000000000000000000000000000000008152600401610732929190611601565b60405180910390fd5b6107458282610caf565b5050565b5f60035f3373ffffffffffffffffffffffffffffffffffffffff1673ffffffffffffffffffffffffffffffffffffffff1681526020019081526020015f2054905090565b5f60035f8373ffffffffffffffffffffffffffffffffffffffff1673ffffffffffffffffffffffffffffffffffffffff1681526020019081526020015f20549050919050565b5f60018111156107e6576107e5611628565b5b5f60149054906101000a900460ff16600181111561080757610806611628565b5b0361083e576040517ff322ab2600000000000000000000000000000000000000000000000000000000815260040160405180910390fd5b610846610f51565b565b5f60018081111561085c5761085b611628565b5b5f60149054906101000a900460ff16600181111561087d5761087c611628565b5b14905090565b5f5f9054906101000a900473ffffffffffffffffffffffffffffffffffffffff1673ffffffffffffffffffffffffffffffffffffffff163373ffffffffffffffffffffffffffffffffffffffff161461093557335f5f9054906101000a900473ffffffffffffffffffffffffffffffffffffffff166040517f295a81c100000000000000000000000000000000000000000000000000000000815260040161092c929190611601565b60405180910390fd5b61093d610f5b565b565b5f600154905090565b5f60045f8373ffffffffffffffffffffffffffffffffffffffff1673ffffffffffffffffffffffffffffffffffffffff1681526020019081526020015f205f9054906101000a900460ff169050919050565b5f5f5f9054906101000a900473ffffffffffffffffffffffffffffffffffffffff1673ffffffffffffffffffffffffffffffffffffffff168273ffffffffffffffffffffffffffffffffffffffff16149050919050565b60605f5f9054906101000a900473ffffffffffffffffffffffffffffffffffffffff1673ffffffffffffffffffffffffffffffffffffffff163373ffffffffffffffffffffffffffffffffffffffff1614610aa557335f5f9054906101000a900473ffffffffffffffffffffffffffffffffffffffff166040517f295a81c1000000000000000000000000000000000000000000000000000000008152600401610a9c929190611601565b60405180910390fd5b610aaf8383611107565b905092915050565b5f5f60169054906101000a900467ffffffffffffffff1667ffffffffffffffff16905090565b5f5f5f9054906101000a900473ffffffffffffffffffffffffffffffffffffffff16905090565b5f5f9054906101000a900473ffffffffffffffffffffffffffffffffffffffff1673ffffffffffffffffffffffffffffffffffffffff163373ffffffffffffffffffffffffffffffffffffffff1614610bb657335f5f9054906101000a900473ffffffffffffffffffffffffffffffffffffffff166040517f295a81c1000000000000000000000000000000000000000000000000000000008152600401610bad929190611601565b60405180910390fd5b5f6001811115610bc957610bc8611628565b5b5f60149054906101000a900460ff166001811115610bea57610be9611628565b5b03610c21576040517f1785c68100000000000000000000000000000000000000000000000000000000815260040160405180910390fd5b5f5f60146101000a81548160ff02191690836001811115610c4557610c44611628565b5b02179055505f5f9054906101000a900473ffffffffffffffffffffffffffffffffffffffff1673ffffffffffffffffffffffffffffffffffffffff167f81990fd9a5c552b8e3677917d8a03c07678f0d2cb68f88b634aca2022e9bd19f60405160405180910390a2565b600180811115610cc257610cc1611628565b5b5f60159054906101000a900460ff166001811115610ce357610ce2611628565b5b03610d1a576040517f583fe88600000000000000000000000000000000000000000000000000000000815260040160405180910390fd5b60015f60156101000a81548160ff02191690836001811115610d3f57610d3e611628565b5b02179055505f47905080821115610d82576040517ff4d678b800000000000000000000000000000000000000000000000000000000815260040160405180910390fd5b5f73ffffffffffffffffffffffffffffffffffffffff168373ffffffffffffffffffffffffffffffffffffffff161480610de757503073ffffffffffffffffffffffffffffffffffffffff168373ffffffffffffffffffffffffffffffffffffffff16145b15610e1e576040517fe6c4247b00000000000000000000000000000000000000000000000000000000815260040160405180910390fd5b5f8373ffffffffffffffffffffffffffffffffffffffff1683604051610e4390611682565b5f6040518083038185875af1925050503d805f8114610e7d576040519150601f19603f3d011682016040523d82523d5f602084013e610e82565b606091505b5050905080610ebd576040517f27fcd9d100000000000000000000000000000000000000000000000000000000815260040160405180910390fd5b8373ffffffffffffffffffffffffffffffffffffffff163373ffffffffffffffffffffffffffffffffffffffff167f4f43b861ba36494acfe938f3815fba7fac6981bdc611b6ccdc14c08f5929238385604051610f1a9190611327565b60405180910390a350505f5f60156101000a81548160ff02191690836001811115610f4857610f47611628565b5b02179055505050565b610f59610343565b565b5f5f9054906101000a900473ffffffffffffffffffffffffffffffffffffffff1673ffffffffffffffffffffffffffffffffffffffff163373ffffffffffffffffffffffffffffffffffffffff161461100d57335f5f9054906101000a900473ffffffffffffffffffffffffffffffffffffffff166040517f295a81c1000000000000000000000000000000000000000000000000000000008152600401611004929190611601565b60405180910390fd5b6001808111156110205761101f611628565b5b5f60149054906101000a900460ff16600181111561104157611040611628565b5b03611078576040517ff9be60a200000000000000000000000000000000000000000000000000000000815260040160405180910390fd5b60015f60146101000a81548160ff0219169083600181111561109d5761109c611628565b5b02179055505f5f9054906101000a900473ffffffffffffffffffffffffffffffffffffffff1673ffffffffffffffffffffffffffffffffffffffff167fa6fab28ddd84cab897063d4c37688841fb9e1fe1df5a7e9a3022d746c8c902f860405160405180910390a2565b60605f60028054905090505f810361116a575f67ffffffffffffffff81111561113357611132611696565b5b6040519080825280602002602001820160405280156111615781602001602082028036833780820191505090505b50915050611309565b8084106111a3576040517fd1b4af5e00000000000000000000000000000000000000000000000000000000815260040160405180910390fd5b6103e88311156111df576040517fb46f48f200000000000000000000000000000000000000000000000000000000815260040160405180910390fd5b5f83856111ec91906115ce565b9050818111156111fa578190505b5f858261120791906116c3565b90508067ffffffffffffffff81111561122357611222611696565b5b6040519080825280602002602001820160405280156112515781602001602082028036833780820191505090505b5093505f600290505f5b828110156113035781818961127091906115ce565b81548110611281576112806116f6565b5b905f5260205f20015f9054906101000a900473ffffffffffffffffffffffffffffffffffffffff168682815181106112bc576112bb6116f6565b5b602002602001019073ffffffffffffffffffffffffffffffffffffffff16908173ffffffffffffffffffffffffffffffffffffffff1681525050808060010191505061125b565b50505050505b92915050565b5f819050919050565b6113218161130f565b82525050565b5f60208201905061133a5f830184611318565b92915050565b5f5ffd5b5f73ffffffffffffffffffffffffffffffffffffffff82169050919050565b5f61136d82611344565b9050919050565b61137d81611363565b8114611387575f5ffd5b50565b5f8135905061139881611374565b92915050565b6113a78161130f565b81146113b1575f5ffd5b50565b5f813590506113c28161139e565b92915050565b5f5f604083850312156113de576113dd611340565b5b5f6113eb8582860161138a565b92505060206113fc858286016113b4565b9150509250929050565b5f6020828403121561141b5761141a611340565b5b5f6114288482850161138a565b91505092915050565b5f8115159050919050565b61144581611431565b82525050565b5f60208201905061145e5f83018461143c565b92915050565b5f5f6040838503121561147a57611479611340565b5b5f611487858286016113b4565b9250506020611498858286016113b4565b9150509250929050565b5f81519050919050565b5f82825260208201905092915050565b5f819050602082019050919050565b6114d481611363565b82525050565b5f6114e583836114cb565b60208301905092915050565b5f602082019050919050565b5f611507826114a2565b61151181856114ac565b935061151c836114bc565b805f5b8381101561154c57815161153388826114da565b975061153e836114f1565b92505060018101905061151f565b5085935050505092915050565b5f6020820190508181035f83015261157181846114fd565b905092915050565b61158281611363565b82525050565b5f60208201905061159b5f830184611579565b92915050565b7f4e487b71000000000000000000000000000000000000000000000000000000005f52601160045260245ffd5b5f6115d88261130f565b91506115e38361130f565b92508282019050808211156115fb576115fa6115a1565b5b92915050565b5f6040820190506116145f830185611579565b6116216020830184611579565b9392505050565b7f4e487b71000000000000000000000000000000000000000000000000000000005f52602160045260245ffd5b5f81905092915050565b50565b5f61166d5f83611655565b91506116788261165f565b5f82019050919050565b5f61168c82611662565b9150819050919050565b7f4e487b71000000000000000000000000000000000000000000000000000000005f52604160045260245ffd5b5f6116cd8261130f565b91506116d88361130f565b92508282039050818111156116f0576116ef6115a1565b5b92915050565b7f4e487b71000000000000000000000000000000000000000000000000000000005f52603260045260245ffdfea26469706673582212208143f3a420c85f86fff4202c6eca7c9a52606c5acf81ce0cd1886d901a217ff864736f6c634300081e0033","linkReferences":{}},"methodIdentifiers":{"activateContract()":"8fda356d","currentKing()":"f5b45714","donateETH()":"8b4c40b0","getDonorsAddresses(uint256,uint256)":"db76858e","isContractActive()":"8f5949f9","isKing(address)":"c91c9cfe","lifetimeDonorsCount()":"ed07f905","myDonation()":"5f6c5975","pauseContract()":"439766ce","totalETHDonated()":"90420628","vaultBalance()":"0bf6cc08","viewDonorBalance(address)":"8af8dbae","viewDonorDonationStatus(address)":"9742a01a","withdrawETH(address,uint256)":"4782f779"},"id":21}